{
  "_format": "hh-sol-artifact-1",
  "contractName": "Election",
  "sourceName": "contracts/Election.sol",
  "abi": [
    {
      "inputs": [],
      "stateMutability": "nonpayable",
      "type": "constructor"
    },
    {
      "anonymous": false,
      "inputs": [
        {
          "indexed": true,
          "internalType": "uint256",
          "name": "_candidateId",
          "type": "uint256"
        },
        {
          "indexed": true,
          "internalType": "address",
          "name": "_voter",
          "type": "address"
        }
      ],
      "name": "VotedEvent",
      "type": "event"
    },
    {
      "inputs": [
        {
          "internalType": "uint256",
          "name": "",
          "type": "uint256"
        }
      ],
      "name": "candidates",
      "outputs": [
        {
          "internalType": "uint256",
          "name": "id",
          "type": "uint256"
        },
        {
          "internalType": "string",
          "name": "name",
          "type": "string"
        },
        {
          "internalType": "uint256",
          "name": "voteCount",
          "type": "uint256"
        }
      ],
      "stateMutability": "view",
      "type": "function"
    },
    {
      "inputs": [],
      "name": "candidatesCount",
      "outputs": [
        {
          "internalType": "uint256",
          "name": "",
          "type": "uint256"
        }
      ],
      "stateMutability": "view",
      "type": "function"
    },
    {
      "inputs": [
        {
          "internalType": "uint256",
          "name": "_candidateId",
          "type": "uint256"
        }
      ],
      "name": "vote",
      "outputs": [],
      "stateMutability": "nonpayable",
      "type": "function"
    },
    {
      "inputs": [
        {
          "internalType": "address",
          "name": "",
          "type": "address"
        },
        {
          "internalType": "uint256",
          "name": "",
          "type": "uint256"
        }
      ],
      "name": "voters",
      "outputs": [
        {
          "internalType": "bool",
          "name": "",
          "type": "bool"
        }
      ],
      "stateMutability": "view",
      "type": "function"
    }
  ],
  "bytecode": "0x60806040523480156200001157600080fd5b506200002e672acfd999ec0979fa60c01b620002a960201b60201c565b6200004a67cf274a6c8ebc3edf60c01b620002a960201b60201c565b620000656601f7131b4b860260c01b620002a960201b60201c565b620000ab6040518060400160405280600b81526020017f43616e6469646174652031000000000000000000000000000000000000000000815250620002ac60201b60201c565b620000c7673172598c41dd25a560c01b620002a960201b60201c565b620000e367450ffe18f6047f1360c01b620002a960201b60201c565b620001296040518060400160405280600b81526020017f43616e6469646174652032000000000000000000000000000000000000000000815250620002ac60201b60201c565b6200014567155ccb598bbcd21460c01b620002a960201b60201c565b62000161674176a60aee2556bf60c01b620002a960201b60201c565b620001a76040518060400160405280600b81526020017f43616e6469646174652033000000000000000000000000000000000000000000815250620002ac60201b60201c565b620001c367fdc60098b0c74a3060c01b620002a960201b60201c565b620001df67485780b6d15be94c60c01b620002a960201b60201c565b620002256040518060400160405280600b81526020017f43616e6469646174652034000000000000000000000000000000000000000000815250620002ac60201b60201c565b6200024167ba16e4a35b84ce3960c01b620002a960201b60201c565b6200025d6717037e4bf066a33d60c01b620002a960201b60201c565b620002a36040518060400160405280600b81526020017f43616e6469646174652035000000000000000000000000000000000000000000815250620002ac60201b60201c565b62000522565b50565b620002c867c11c84346721152860c01b620002a960201b60201c565b620002e46727bf51b35cfdbecb60c01b620002a960201b60201c565b60026000815480929190620002f99062000476565b91905055506200031a67b4696721c132000b60c01b620002a960201b60201c565b6040518060600160405280600254815260200182815260200160008152506001600060025481526020019081526020016000206000820151816000015560208201518160010190805190602001906200037592919062000386565b506040820151816002015590505050565b828054620003949062000440565b90600052602060002090601f016020900481019282620003b8576000855562000404565b82601f10620003d357805160ff191683800117855562000404565b8280016001018555821562000404579182015b8281111562000403578251825591602001919060010190620003e6565b5b50905062000413919062000417565b5090565b5b808211156200043257600081600090555060010162000418565b5090565b6000819050919050565b600060028204905060018216806200045957607f821691505b6020821081141562000470576200046f620004f3565b5b50919050565b6000620004838262000436565b91507fffffffffffffffffffffffffffffffffffffffffffffffffffffffffffffffff821415620004b957620004b8620004c4565b5b600182019050919050565b7f4e487b7100000000000000000000000000000000000000000000000000000000600052601160045260246000fd5b7f4e487b7100000000000000000000000000000000000000000000000000000000600052602260045260246000fd5b61076f80620005326000396000f3fe608060405234801561001057600080fd5b506004361061004c5760003560e01c80630121b93f146100515780632d35a8a21461006d5780633477ee2e1461008b5780635c134d66146100bd575b600080fd5b61006b60048036038101906100669190610421565b6100ed565b005b6100756102cd565b6040516100829190610503565b60405180910390f35b6100a560048036038101906100a09190610421565b6102d3565b6040516100b49392919061051e565b60405180910390f35b6100d760048036038101906100d291906103e1565b610385565b6040516100e491906104c8565b60405180910390f35b61010167b05bdff94c61fb8b60c01b6103b4565b61011567f05003ee47c71b2060c01b6103b4565b61012967047876581158aabf60c01b6103b4565b61013d67627e0dc20d67876f60c01b6103b4565b60008111801561014f57506002548111155b61018e576040517f08c379a0000000000000000000000000000000000000000000000000000000008152600401610185906104e3565b60405180910390fd5b6101a267a1568026209f039060c01b6103b4565b6101b667eded709eacec097060c01b6103b4565b60016000803373ffffffffffffffffffffffffffffffffffffffff1673ffffffffffffffffffffffffffffffffffffffff168152602001908152602001600020600083815260200190815260200160002060006101000a81548160ff02191690831515021790555061023267ee1702a556a93b6560c01b6103b4565b60016000828152602001908152602001600020600201600081548092919061025990610625565b919050555061027267acfa8eaa30ae745160c01b6103b4565b6102866730ebc73a0ca5615260c01b6103b4565b3373ffffffffffffffffffffffffffffffffffffffff16817fef0a8c30b864cd88d58d772c577afd36560b80a69c4eea26d684aa68cca2b1e560405160405180910390a350565b60025481565b60016020528060005260406000206000915090508060000154908060010180546102fc906105f3565b80601f0160208091040260200160405190810160405280929190818152602001828054610328906105f3565b80156103755780601f1061034a57610100808354040283529160200191610375565b820191906000526020600020905b81548152906001019060200180831161035857829003601f168201915b5050505050908060020154905083565b60006020528160005260406000206020528060005260406000206000915091509054906101000a900460ff1681565b50565b6000813590506103c68161070b565b92915050565b6000813590506103db81610722565b92915050565b600080604083850312156103f8576103f76106cc565b5b6000610406858286016103b7565b9250506020610417858286016103cc565b9150509250929050565b600060208284031215610437576104366106cc565b5b6000610445848285016103cc565b91505092915050565b6104578161058a565b82525050565b60006104688261055c565b6104728185610567565b93506104828185602086016105c0565b61048b816106d1565b840191505092915050565b60006104a3601583610567565b91506104ae826106e2565b602082019050919050565b6104c2816105b6565b82525050565b60006020820190506104dd600083018461044e565b92915050565b600060208201905081810360008301526104fc81610496565b9050919050565b600060208201905061051860008301846104b9565b92915050565b600060608201905061053360008301866104b9565b8181036020830152610545818561045d565b905061055460408301846104b9565b949350505050565b600081519050919050565b600082825260208201905092915050565b600061058382610596565b9050919050565b60008115159050919050565b600073ffffffffffffffffffffffffffffffffffffffff82169050919050565b6000819050919050565b60005b838110156105de5780820151818401526020810190506105c3565b838111156105ed576000848401525b50505050565b6000600282049050600182168061060b57607f821691505b6020821081141561061f5761061e61069d565b5b50919050565b6000610630826105b6565b91507fffffffffffffffffffffffffffffffffffffffffffffffffffffffffffffffff8214156106635761066261066e565b5b600182019050919050565b7f4e487b7100000000000000000000000000000000000000000000000000000000600052601160045260246000fd5b7f4e487b7100000000000000000000000000000000000000000000000000000000600052602260045260246000fd5b600080fd5b6000601f19601f8301169050919050565b7f496e76616c69642063616e6469646174652049442e0000000000000000000000600082015250565b61071481610578565b811461071f57600080fd5b50565b61072b816105b6565b811461073657600080fd5b5056fea26469706673582212208cecb42ae76456daab939a84340015494cea117e153410c34211901cbb710f4d64736f6c63430008070033",
  "linkReferences": {},
  "deployedLinkReferences": {}
}